:100000000C948C000C94B4000C94B4000C94B400C8
:100010000C94B4000C94B4000C94B4000C94B40090
:100020000C94B4000C94B4000C94B4000C945E0EC8
:100030000C94B4000C94B4000C94B4000C94B40070
:100040000C94140E0C94B4000C94E20D0C94BC0DA2
:100050000C94B4000C94B4000C94B4000C94B40050
:100060000C941A0F0C94B400000000002400270028
:100070002A0000000000250028002B0000000008D6
:10008000000201000003040700000000000000005F
:1000900031353A32313A3339004A756C20203220FA
:1000A00032303232004661696C656420746F2072B0
:1000B0006561642066726F6D204448542073656EDC
:1000C000736F72210025202054656D706572617414
:1000D0007572653A200048756D69646974793A20D3
:1000E000000000000023002600290004040404048A
:1000F00004040402020202020203030303030301D5
:1001000002040810204080010204081020010204AB
:10011000081020004610921711241FBECFEFD8E020
:10012000DEBFCDBF12E0A0E0B1E0ECECF9E302C02D
:1001300005900D92AC33B107D9F724E0ACE3B2E0FF
:1001400001C01D92A232B207E1F710E0CBE8D0E087
:1001500004C02197FE010E94E11ACA38D107C9F7ED
:100160000E9442110C94D91C0C940000CF92DF9293
:10017000EF92FF92CF93DF93C82F8091F3038C30DF
:1001800009F45EC038F48B30F1F060E070E080EC90
:100190009FE74FC085518230C0F7D091EF036D2F9C
:1001A00070E0762F662766277F778091F003682BB3
:1001B00090E080E00E94A9172DEC3CEC4CEC5DE354
:1001C0000E940A1859C06091EF0370E090E080E04F
:1001D0000E94A9176B017C01D091F003D7FF0AC0E0
:1001E000AC019B0160E070E080E89FEB0E94621927
:1001F0006B017C01DF706D2F70E090E080E00E9469
:10020000AB172DEC3CEC4CEC5DE30E940A18A70107
:1002100096010E946319CC2361F026E636E646EE8D
:100220005FE30E940A1820E030E040E052E40E94C0
:100230006319DF91CF91FF90EF90DF90CF900895F9
:10024000D091EF036D2F70E090E080E00E94A9173D
:100250006B017C016091F0036F7070E090E080E0D2
:100260000E94AB172DEC3CEC4CEC5DE30E940A18AD
:10027000A70196010E946319D7FFCDCF9058CBCF2D
:10028000CF92DF92EF92FF92CF93DF93B091F4037E
:10029000A0E08111AB2F8091F50390E0880F991FAA
:1002A000AC014F515F4FC090FA03D090FB03E09038
:1002B000FC03F090FD0330E020E0FA01C591D491F9
:1002C000E881B90190E080E0EB23EA130AC02F5FD8
:1002D0003F4F6C157D058E059F0578F36FEF7FEF1F
:1002E000CB01DF91CF91FF90EF90DF90CF900895F9
:1002F000CF92DF92EF92FF92DC01A03282E0B8074A
:10030000D4F5A53BB10514F0A4EBB0E04091EB03AC
:1003100028E830E0241B310947FD3395220F331FB5
:10032000220F331F6901330FEE08FF084091EC03E1
:1003300028E532E0241B310947FD3395220F331F96
:10034000220F331F032E000C440B550B2C193D09B3
:100350004E095F09B7FF02C0B0E0A0E00E94F218AA
:1003600024EB30E040E050E00E94C818C20ED31EDB
:10037000E41EF51ED601E091EA03EC3080F52091F1
:10038000EB0388E890E0821B910927FD9395880F85
:10039000991F880F991FA817B90784F02091EC03C3
:1003A00088E592E0821B910927FD9395880F991F9C
:1003B000880F991FA817B9070CF4CD010297880F71
:1003C000991F4FB7F8942E2F30E0F901EE0FFF1F61
:1003D000E20FF31FEB53FC4F928381834FBFFF90DB
:1003E000EF90DF90CF90089508950895AF92BF9257
:1003F000CF92DF92EF92FF920F931F93CF93DF93F1
:100400006C017B018B01040F151FEB015E01AE181F
:10041000BF08C017D10759F06991D601ED91FC9141
:100420000190F081E02DC6010995892B79F7C5016E
:10043000DF91CF911F910F91FF90EF90DF90CF90C0
:10044000BF90AF900895FC01538D448D252F30E06F
:10045000842F90E0821B930B541710F0CF960895D1
:1004600001970895FC01918D828D981761F0A28DFE
:10047000AE0FBF2FB11D5D968C91928D9F5F9F73C4
:10048000928F90E008958FEF9FEF0895FC01918D7A
:10049000828D981731F0828DE80FF11D858D90E0E7
:1004A00008958FEF9FEF0895FC01918D228D892F84
:1004B00090E0805C9F4F821B91098F73992708956C
:1004C0008CE193E00E94540221E0892B09F420E0A2
:1004D000822F089580E090E0892B29F00E9460022D
:1004E00081110C9400000895FC01A48DA80FB92F70
:1004F000B11DA35ABF4F2C91848D90E001968F734C
:100500009927848FA689B7892C93A089B1898C916A
:10051000837080648C93938D848D981306C00288B9
:10052000F389E02D80818F7D80830895EF92FF9283
:100530000F931F93CF93DF93EC0181E0888F9B8D06
:100540008C8D98131AC0E889F989808185FF15C0C0
:100550009FB7F894EE89FF896083E889F9898081E3
:100560008370806480839FBF81E090E0DF91CF91B2
:100570001F910F91FF90EF900895F62E0B8D10E0D4
:100580000F5F1F4F0F731127E02E8C8D8E110CC043
:100590000FB607FCFACFE889F989808185FFF5CF8E
:1005A000CE010E947402F1CFEB8DEC0FFD2FF11DF7
:1005B000E35AFF4FF0829FB7F8940B8FEA89FB89CB
:1005C00080818062CFCF0F931F93CF93DF938C01F5
:1005D000D0E0C0E0F801EC0FFD1F6491662341F00C
:1005E0008CE193E00E949602892B11F02196F2CFC4
:1005F000CE01DF91CF911F910F910895CF93DF939B
:10060000EC01888D8823B9F0AA89BB89E889F9892A
:100610008C9185FD03C0808186FD0DC00FB607FC5F
:10062000F7CF8C9185FFF2CF808185FFEDCFCE0192
:100630000E947402E9CFDF91CF910895833081F059
:1006400028F4813099F08230A9F008958730A9F01C
:100650008830C9F08430B1F4809180008F7D03C070
:10066000809180008F7780938000089584B58F7784
:1006700084BD089584B58F7DFBCF8091B0008F77C6
:100680008093B00008958091B0008F7DF9CFCF9313
:10069000DF93282F30E0F901E458FF4F8491F901EE
:1006A000E150FF4FD491F901E551FF4FC491CC23A4
:1006B000A1F081110E941E03EC2FF0E0EE0FFF1F4E
:1006C000EF51FF4FA591B491EC91ED2381E090E0C3
:1006D00009F480E0DF91CF91089580E090E0FACFB7
:1006E0001F93CF93DF93282F30E0F901E458FF4F99
:1006F0008491F901E150FF4FD491F901E551FF4F89
:10070000C491CC23A9F0162F81110E941E03EC2F57
:10071000F0E0EE0FFF1FEE58FF4FA591B4918FB799
:10072000F894EC91111108C0D095DE23DC938FBFB3
:10073000DF91CF911F910895DE2BF8CFCF93DF93F8
:1007400090E0FC01E150FF4F249185519F4FFC0147
:1007500084918823C9F090E0880F991FFC01E85923
:10076000FF4FA591B491FC01EE58FF4FC591D49174
:1007700061110DC09FB7F8948C91209582238C93C2
:100780008881282328839FBFDF91CF91089562300D
:1007900051F49FB7F8943C91822F809583238C93DA
:1007A000E8812E2BEFCF8FB7F894EC912E2B2C9362
:1007B0008FBFEACF3FB7F894809182029091830275
:1007C000A0918402B091850226B5A89B05C02F3F59
:1007D00019F00196A11DB11D3FBFBA2FA92F982F67
:1007E0008827BC01CD01620F711D811D911D42E062
:1007F000660F771F881F991F4A95D1F708958F922A
:100800009F92AF92BF92CF92DF92EF92FF924B01F5
:100810005C010E94DA036B017C010E94DA036C190F
:100820007D098E099F09683E734081059105A8F3F3
:1008300021E0821A9108A108B10888EEC80E83E071
:10084000D81EE11CF11C81149104A104B10429F704
:10085000FF90EF90DF90CF90BF90AF909F908F90E0
:100860000895CF92DF92EF92FF920F931F93CF9351
:10087000DF93CDB7DEB7C054D1400FB6F894DEBFDA
:100880000FBECDBF2FB7F8948091A6029091A7021A
:10089000A091A802B091A9022FBF4091F6035091F8
:1008A000F7036091F8037091F9038C019D01041B1B
:1008B000150B260B370BB901A801403D57406105C8
:1008C000710590F48091FE03C05CDE4F0FB6F89482
:1008D000DEBF0FBECDBFDF91CF911F910F91FF9073
:1008E000EF90DF90CF9008958093F6039093F703F5
:1008F000A093F803B093F9031092F1031092F00360
:100900001092EF031092EE031092ED0362E08091DB
:10091000F2030E949E0361E070E080E090E00E949C
:10092000FF0361E08091F2030E949E0360E08091EA
:10093000F2030E9470038091F3038551823020F509
:100940008BE291E10197F1F762E08091F2030E945E
:100950009E038091FF0390E08230910538F0880F6C
:10096000991F880F991F05970197F1F7F89480E078
:100970000E9440016F3F7F4F8F4F9F4F61F4109255
:10098000FE03789480E0A0CF64E170E080E090E026
:100990000E94FF03D9CF81E00E9440016F3F7F4F4B
:1009A0008F4F9F4F61F38E010F5F1F4F6E018FEBD3
:1009B000C81A8EEFD80A780180E00E944001F70142
:1009C000608371838283938381E00E944001F701F9
:1009D0006483758386839783F8E0EF0EF11CEC1433
:1009E000FD0451F7789430E020E0F801C080D18018
:1009F000E280F3804481558166817781FFEFCF16D5
:100A0000DF06EF06FF0631F04F3F8FEF580768070C
:100A1000780719F41092FE03B5CFF90183E0F5953C
:100A2000E7958A95E1F7E351FC4F8081880FC41662
:100A3000D506E606F70610F180832F5F3F4F085F6B
:100A40001F4F2832310589F64091F1032091ED03C3
:100A50008091EE03280F3327331F8091EF03280F77
:100A6000311D8091F003820F932F911D9927481714
:100A7000190681F681E08093FE0326CF8160DCCFEA
:100A800020915D02260F3327331F21323105ECF40C
:100A90002091F202FC0190E080E0243069F082E0D5
:100AA0000895A0915D022191AC01435C5D4FA40FBC
:100AB000B52FB11D2C930196861798F380915D0296
:100AC000680F60935D0280E0089581E008951092C0
:100AD000F20281E08093F1021092CC0261E082E1A7
:100AE0000E94700361E083E10E947003E9EBF0E093
:100AF00080818E7F808380818D7F808388E4809356
:100B0000B80085E48093BC000895CF93DF9391E013
:100B100090933C028823B9F0C091B800D091BA00FC
:100B20008091BC008A7B8093BC0060E082E10E94DF
:100B3000700360E083E10E9470030E946705D09318
:100B4000BA00C093B800DF91CF9108958F929F9221
:100B5000AF92BF92CF92DF92EF92FF920F931F93CB
:100B6000CF93DF93D0911B03D13208F0D7C0182F59
:100B7000C0911A030E94DA036B017C018091F2029A
:100B800081116BC082E08093F2021093F1028FEF2B
:100B90008093F0021092EF02D093EE02AAEFB2E03F
:100BA000EEECF2E080E0D81391C01092CD0280917B
:100BB000CD02CC0FC82BC093CD028091CC028130E6
:100BC00009F088C01092CC020E94DA036B017C010C
:100BD0008091CD028093BB008091F4029091F50248
:100BE000A091F602B091F702892B8A2B8B2BA1F0F2
:100BF0000E94DA030091F4021091F5022091F602AE
:100C00003091F7026C197D098E099F0906171707A5
:100C10002807390708F442C08091BC0083FDD8CF73
:100C200085EC8093BC000E94DA036B017C0180910B
:100C3000F202823009F450C08091F0028F3F09F433
:100C40006FC08091F002803209F46CC08091F00294
:100C5000803309F469C084E026C08091F402909149
:100C6000F502A091F602B091F702892B8A2B8B2B0B
:100C700009F484CF0E94DA038090F4029090F50288
:100C8000A090F602B090F7026C197D098E099F09B9
:100C900086169706A806B90608F070CF8091F30271
:100CA0000E94850585E01092F90210921B031092B4
:100CB000F802DF91CF911F910F91FF90EF90DF909D
:100CC000CF90BF90AF909F908F9008959D919193FA
:100CD0008F5F69CF85EEA5CF8091F4029091F502E8
:100CE000A091F602B091F702892B8A2B8B2B09F485
:100CF0009ECF0E94DA030091F4021091F502209138
:100D0000F6023091F7026C197D098E099F090617CA
:100D100017072807390708F08ACFC0CF81E0C3CF73
:100D200080E0C1CF82E0BFCF83E0BDCF1F93CF93E0
:100D3000DF93EA01122FDC0111968D919C91DC0169
:100D4000ED91FC910280F381E02D0995C817D90738
:100D500029F4812F0E94A60591E0811190E0892F4E
:100D6000DF91CF911F910895CF93DF93EC018B8199
:100D70008823A1F0888191E09093F80280931A0370
:100D80001092F90210921B0381E00E94A60591E0E7
:100D9000811190E0892FDF91CF9108951092AB02DD
:100DA0001092AA021092F90210921B030E9467058A
:100DB00084EF91E0909389028093880285EF91E01F
:100DC000909387028093860281E08B83CE010E94FC
:100DD000B406982F8111CECFDDCF0895E091AB02FC
:100DE0008091AA02E81730F4F0E0E455FD4F8081CD
:100DF00090E008958FEF9FEF08959091AB0280915E
:100E0000AA022FEF3FEF981748F4E92FF0E0E455DE
:100E1000FD4F208130E09F5F9093AB02C9010895A0
:100E20008091AA029091AB02891B990B0895CF92F1
:100E3000DF92EF92FF920F931F93CF93DF937C018A
:100E4000CB018A012091F802222389F0EB016B018A
:100E5000C40ED51ECC15DD0569F06991D701ED9161
:100E6000FC910190F081E02DC7010995F3CF642F2B
:100E70000E944005C801DF91CF911F910F91FF9013
:100E8000EF90DF90CF900895CF93DF931F92CDB76F
:100E9000DEB769832091F8022223F9F020911B0329
:100EA000203258F021E030E0FC013383228390E0CF
:100EB00080E00F90DF91CF9108958091F902E82FA3
:100EC000F0E0E650FD4F998190838F5F8093F902A7
:100ED00080931B0381E090E0ECCF61E0CE010196AE
:100EE0000E944005F7CF089590E080E008952F928A
:100EF0003F924F925F926F927F928F929F92AF92AA
:100F0000BF92CF92DF92EF92FF920F931F93CF93F6
:100F1000DF935C011B016A01F12CE12CD5011496D1
:100F20008D919C9186010E191F098017910708F475
:100F30008C01F501D0810E94DA032B013C018091E4
:100F4000F202811172C0C02F013208F0C0E2F1E05C
:100F5000F093F20221E0C601801B910BE816F9061E
:100F600008F420E02093F1028FEF8093F0021092BA
:100F7000EF028C0F8093EE02A1E0A093CD0280914E
:100F8000CD02DD0FD82BD093CD028091CC028130E1
:100F900009F090C01092CC020E94DA032B013C01B0
:100FA0008091CD028093BB008091F4029091F50274
:100FB000A091F602B091F702892B8A2B8B2BA1F01E
:100FC0000E94DA032091F4023091F5024091F6027A
:100FD0005091F70264197509860997092617370792
:100FE0004807590708F442C08091BC0083FDD8CF60
:100FF000B5ECB093BC000E94DA032B013C01809158
:10100000F202813009F45AC08091EF028C1710F47B
:10101000C091EF02AEECB2E0ECEAF2E080E08C17B7
:1010200051F19D9191938F5FFACF8091F40290914D
:10103000F502A091F602B091F702892B8A2B8B2B37
:1010400009F47DCF0E94DA032091F4023091F50279
:101050004091F6025091F7026419750986099709C3
:10106000261737074807590708F069CF8091F30220
:101070000E948505C0E01092AB02C093AA02C0177F
:10108000110609F057C041018E0C9F1CE401CE01EE
:10109000881999098017910798F5D50111968D91B6
:1010A0009C91DC01ED91FC910284F385E02D099582
:1010B0008993EDCFE5EEE093BC009DCF8091F402E3
:1010C0009091F502A091F602B091F702892B8A2B3C
:1010D0008B2B09F494CF0E94DA032091F402309113
:1010E000F5024091F6025091F702641975098609DC
:1010F0009709261737074807590708F080CFB6CF5A
:10110000E00EF11EEC14FD0408F408CF81E0DF913D
:10111000CF911F910F91FF90EF90DF90CF90BF90F4
:10112000AF909F908F907F906F905F904F903F9087
:101130002F90089580E0EBCFCF93DF93EC0160E038
:101140008E810E94700361E08E810E94700360E0D6
:101150008E810E9470038BE891E00197F1F7DF9197
:10116000CF910895CF92DF92EF92FF920F931F934A
:10117000CF93DF936C017C0187E0E80EF11CD0E097
:10118000C0E0062F10E0B8010C2E02C075956795DF
:101190000A94E2F76170F70181917F010E94700368
:1011A0002196C430D10579F7C601DF91CF911F9107
:1011B0000F91FF90EF90DF90CF900C949C08CF920E
:1011C000DF92EF92FF920F931F93CF93DF93EC0187
:1011D000F62E642F8C810E9470038D818F3F19F051
:1011E00060E00E9470030F2D10E08F8584FF25C002
:1011F0006E0187E0C80ED11CF12CE12CB8010E2C39
:1012000002C0759567950A94E2F76170F6018191C5
:101210006F010E947003FFEFEF1AFF0A88E0E816E3
:10122000F10461F7CE01DF91CF911F910F91FF90F3
:10123000EF90DF90CF900C949C08B80184E07595F6
:1012400067958A95E1F7CE010E94B2086F2DCE0115
:10125000DF91CF911F910F91FF90EF90DF90CF9092
:101260000C94B20840E0682F86E094E00C94DF080C
:10127000CF93DF93823029F4909115049860909376
:1012800015048093190410921A0480E480931B04BF
:1012900080E180931C0480E580931D0461E08091CF
:1012A0000A040E949E0380910B048F3F19F061E0B5
:1012B0000E949E0361E080910C040E949E03C6E0A0
:1012C000D4E09E01265034408091150484FD0BC06B
:1012D00084E090E021962817390744F461E08E817C
:1012E0000E949E03EECF88E090E0F4CF8BE39DE078
:1012F0000197F1F760E080910A040E94700360E0BA
:1013000080910C040E94700380910B048F3F19F0B0
:1013100060E00E9470038091150484FD39C063E091
:1013200086E094E00E94B208CBE4D6E4CE010197B7
:10133000F1F763E086E094E00E94B2082197F1F7AC
:1013400063E086E094E00E94B20883E592E00197B2
:10135000F1F762E086E094E00E94B2088091150403
:1013600080620E94320984E0809316048CE00E941F
:10137000320981E00E9432098BE39FE10197F1F786
:1013800082E08093170486E0DF91CF910C943209BC
:1013900080620E9432098BE496E40197F1F7809114
:1013A000150480620E94320983E592E00197F1F70B
:1013B0008091150480620E943209D0CF9091190467
:1013C000691710F06FEF690FE62FF0E0EA5FFB4F4F
:1013D0009489890F80680C94320941E00E94DF08EB
:1013E00081E090E00895FB0101900020E9F731973A
:1013F000AF01461B570BDC01ED91FC910280F3819C
:10140000E02D09948F929F92AF92BF92EF92FF923C
:101410000F931F93CF93DF93CDB7DEB7A1970FB68E
:10142000F894DEBF0FBECDBF7C01FA01CB0119A23B
:10143000223008F42AE08E010F5D1F4F822E912C7E
:10144000B12CA12CBF01A50194010E943119F90111
:10145000CA016A300CF5605DD8016E938D01232BB3
:10146000242B252B79F790E080E0109721F0BD0127
:10147000C7010E94F309A1960FB6F894DEBF0FBE14
:10148000CDBFDF91CF911F910F91FF90EF90BF9053
:10149000AF909F908F900895695CDECFCF92DF92DE
:1014A000EF92FF926C01990FEE08FF08F7FE18C04B
:1014B00041E06DE286E094E00E94DF084427552772
:1014C000BA014C195D096E097F092AE086E094E0B3
:1014D0000E94020A0196FF90EF90DF90CF9008954E
:1014E0002AE0B701A60186E094E0FF90EF90DF903C
:1014F000CF900C94020ABC0186E094E00C94F309AE
:101500002F923F924F925F926F927F928F929F9213
:10151000AF92BF92CF92DF92EF92FF921F93CF9341
:10152000DF93EC016A017B01722EAB019601CB01C6
:10153000B6010E94BB1A68E371E0811126C0460122
:101540005701E894B7F82FEF3FEF4FE75FE7C5018A
:10155000B4010E94BB1A81110CC02FEF3FEF4FE77F
:101560005FE7C501B4010E94A4176CE371E018168F
:1015700064F02FEF3FEF4FE75FE4C701B6010E9431
:10158000701A1816B4F460E471E0CE01DF91CF91C7
:101590001F91FF90EF90DF90CF90BF90AF909F9002
:1015A0008F907F906F905F904F903F902F900C9412
:1015B000F3092FEF3FEF4FE75FECC701B6010E9441
:1015C000A41787FDE0CF20E030E0A901C701B601F4
:1015D0000E94A417312C212C87FF0DC0E881F981CE
:1015E0000190F081E02D6DE2CE0109951C01F7FA22
:1015F000F094F7F8F09410E060E070E080E09FE392
:10160000711641F020E030E040E251E40E94CF1931
:101610001F5FF6CFA70196010E9463192B013C01C1
:101620000E94411A4B015C012AE0BC01A401CE01D9
:101630000E94020A7C01E20CF31C1123E1F1C501B6
:10164000B4010E94A9179B01AC01C301B2010E9421
:1016500062194B015C01E881F9810190F081E02D74
:101660006EE2CE010995E80EF91E115020F120E03E
:1016700030E040E251E4C501B4010E940A182B0198
:101680003C010E94411A4B01B12CA12C2AE0B5016A
:10169000A401CE010E94020AE80EF91EC501B401A0
:1016A0000E94A9179B01AC01C301B2010E946219FB
:1016B0004B015C01DACFC701DF91CF911F91FF9001
:1016C000EF90DF90CF90BF90AF909F908F907F90E2
:1016D0006F905F904F903F902F9008954F925F9240
:1016E0006F927F928F929F92AF92BF92CF92DF9232
:1016F000EF92FF920F93CF93DF93CDB7DEB728978A
:101700000FB6F894DEBF0FBECDBF6B017C0149015F
:101710005A0101110EC026E636E646EE5FE30E944E
:101720000A1820E030E040E052E40E9463196B01A7
:101730007C0120E030E048E852E4C701B6010E9495
:1017400062192AE939E949E95FE30E940A182B0185
:101750003C0120E030E044E752E4C701B6010E94BA
:1017600063199B01AC01C301B2010E9463192B01F3
:101770003C0122E133E840EC5DE3C501B4010E9485
:101780000A189B01AC01C301B2010E94631920E059
:1017900030E040E05FE30E940A182B013C0120E0AA
:1017A00030E04EE952E40E94701A18160CF023C182
:1017B000A7019601C701B6010E940A182B013C013E
:1017C000A5019401C501B4010E940A186D837E83AE
:1017D0008F83988721E133E243E050E4C701B601EB
:1017E0000E940A1829E134E849E252E40E94621991
:1017F00069837A838B839C8326E13BE442E251E454
:10180000C501B4010E940A189B01AC0169817A816B
:101810008B819C810E94631969837A838B839C836B
:1018200028E436E246E65EEBC701B6010E940A18DC
:10183000A50194010E940A189B01AC0169817A817B
:101840008B819C810E94631969837A838B839C833B
:1018500020EE3FE040EE5BEBC301B2010E940A18AC
:101860009B01AC0169817A818B819C810E94631903
:1018700069837A838B839C8328EF37E840E65DEBAE
:101880006D817E818F8198850E940A189B01AC0131
:1018900069817A818B819C810E94631969837A8333
:1018A0008B839C832CEA3DE041EA5AE3C301B201F9
:1018B0000E940A18A50194010E940A189B01AC011C
:1018C00069817A818B819C810E94631969837A8303
:1018D0008B839C8328EC3FE84FE55AE3C701B601B0
:1018E0000E940A182D813E814F8158850E940A1856
:1018F0009B01AC0169817A818B819C810E94631973
:1019000069837A838B839C8321EF3BE845E056EB28
:10191000C301B2010E940A182D813E814F81588572
:101920000E940A189B01AC0169817A818B819C819C
:101930000E9463192B013C0120E030E040E551E4B6
:10194000C501B4010E94A41787FF88C020E030E0E1
:1019500040EA52E4C701B6010E94701A87FD7EC0BA
:1019600020E030E040EE52E4C701B6010E94A41727
:1019700018160CF4BDC0A501940160E070E080E58C
:1019800091E40E94621920E030E040E85EE30E94AA
:101990000A184B015C0120E030E04EEB52E4C70135
:1019A000B6010E9462196B017C0120E030E0A901C0
:1019B0000E94701A18160CF048C0A701960160E04A
:1019C00070E088E891E40E9462192EE33DEE40E762
:1019D0005DE30E940A180E947B1A9B01AC01C501BD
:1019E000B4010E940A189B01AC01C301B2010E941C
:1019F00062192B013C01011110C020E030E040E0F1
:101A000052E4C301B2010E94621926E838E34EE0B5
:101A10005FE30E940A182B013C01C301B201289622
:101A20000FB6F894DEBF0FBECDBFDF91CF910F91FF
:101A3000FF90EF90DF90CF90BF90AF909F908F90EE
:101A40007F906F905F904F90089520E030E048E8DD
:101A500051E4C701B6010E946319B7CF20E030E01E
:101A60004AEA52E4C501B4010E94701A18161CF625
:101A700020E030E040EA52E4C701B6010E94701A4B
:101A800087FDB9CF20E030E04EEA52E4C701B6014D
:101A90000E94A41718160CF4AECF20E030E04AEAFA
:101AA00052E4C501B4010E9462192DEC3CEC4CECEF
:101AB0005DE30E940A184B015C01A701960160E0FA
:101AC00070E08EEA92E40E9462192DEC3CEC4CE44A
:101AD0005EE30E940A189B01AC01C501B4010E949B
:101AE0000A189B01AC01C301B2010E94631981CFA6
:101AF00020E030E04AEA52E4C501B4010E94701AC5
:101B000018160CF4BFCF77CF85ED8093BC00809181
:101B1000F4029091F502A091F602B091F7020796B7
:101B2000A11DB11D23E0B695A795979587952A9598
:101B3000D1F72091BC0024FD03C01092F202089559
:101B40004091F4025091F5026091F6027091F70213
:101B5000452B462B472B69F30097A105B10541F0B2
:101B600025E32A95F1F700000197A109B109E1CF1A
:101B70008091F3020C9485051F920F920FB60F927D
:101B800011242F933F934F935F936F937F938F9382
:101B90009F93AF93BF93EF93FF938CE193E00E94E9
:101BA0007402FF91EF91BF91AF919F918F917F91BF
:101BB0006F915F914F913F912F910F900FBE0F90BA
:101BC0001F9018951F920F920FB60F9211242F930A
:101BD0008F939F93EF93FF93E0912C03F0912D034C
:101BE0008081E0913203F091330382FD1BC090812C
:101BF000809135038F5F8F7320913603821741F0F8
:101C0000E0913503F0E0E45EFC4F958F809335035F
:101C1000FF91EF919F918F912F910F900FBE0F9099
:101C20001F9018958081F4CF1F920F920FB60F92DC
:101C300011242F933F938F939F93AF93BF938091E2
:101C4000A6029091A702A091A802B091A90230919A
:101C5000810223E0230F2D3758F50196A11DB11DF8
:101C6000209381028093A6029093A702A093A802DA
:101C7000B093A9028091820290918302A091840284
:101C8000B09185020196A11DB11D809382029093AF
:101C90008302A0938402B0938502BF91AF919F917C
:101CA0008F913F912F910F900FBE0F901F9018951D
:101CB00026E8230F0296A11DB11DD2CF1F920F92CD
:101CC0000FB60F9211242F933F934F935F936F930F
:101CD0007F938F939F93AF93BF93CF93DF93EF93B4
:101CE000FF9380918002C091E903D0E087FF24C078
:101CF0001092850010928400809180028F5F809303
:101D0000800280918002082E000C990B8C179D0791
:101D100024F4809180028C30C4F1809184009091F1
:101D20008500049680349C4908F47AC08091840030
:101D300090918500049676C080918002082E000C58
:101D4000990B8C179D07C4F6E09180028E2FEE0F41
:101D5000990BFC01EE0FFF1FE80FF91FEB53FC4F2F
:101D6000808186FFC9CFE09180028E2FEE0F990B04
:101D7000FC01EE0FFF1FE80FF91FEB53FC4F8081B2
:101D800060E08F730E947003B7CF20918400309180
:101D90008500E09180028E2FEE0F990BFC01EE0F73
:101DA000FF1FE80FF91FEB53FC4F81819281820FD7
:101DB000931F9093890080938800E09180028E2F7A
:101DC000EE0F990BFC01EE0FFF1FE80FF91FEB530D
:101DD000FC4F808186FF11C0E09180028E2FEE0FB4
:101DE000990BFC01EE0FFF1FE80FF91FEB53FC4F9F
:101DF000808161E08F730E947003FF91EF91DF910A
:101E0000CF91BF91AF919F918F917F916F915F9192
:101E10004F913F912F910F900FBE0F901F901895EB
:101E200080E49CE990938900809388008FEF8093F1
:101E30008002E3CF1F920F920FB60F9211242F93BF
:101E40003F934F935F936F937F938F939F93AF9342
:101E5000BF93EF93FF938091B900887F803609F498
:101E60004AC0F0F5883209F4A7C018F5803109F4AA
:101E70009BC0B8F4882309F4F9C0883009F494C0F1
:101E8000FF91EF91BF91AF919F918F917F916F9152
:101E90005F914F913F912F910F900FBE0F901F9028
:101EA0001895883109F488C0803251F78093F00288
:101EB00014C0803409F49DC040F48033B9F38833F2
:101EC000F9F68093F00285ECB0C0803509F485C046
:101ED000883509F496C0883499F60E94840DD0CFD5
:101EE000883909F48CC038F5883729F050F48836E1
:101EF00011F0803729F683E08093F20210927F027E
:101F000057C0883809F47BC0803919F0803809F04F
:101F1000B7CF80917F02803208F071C0E0917F02DC
:101F200081E08E0F80937F028091BB00F0E0E15A48
:101F3000FD4F80833DC0803B39F0E0F4803A09F4E6
:101F400079C0883A09F09CCF84E08093F202109225
:101F50005E0210925D02E0918802F091890209957B
:101F600080915D0281110FC081E080935D0210922B
:101F70003D0209C0803C09F4A6CF883C09F4A3CFF8
:101F8000883B09F07DCFE0915E0281E08E0F809367
:101F90005E02F0E0E35CFD4F80818093BB00909196
:101FA0005E0280915D0229C08091CD028093BB00CA
:101FB00085EC8093BC0064CF9091EF028091EE029B
:101FC000981758F5E091EF0281E08E0F8093EF02B1
:101FD000F0E0E253FD4F8081E9CFE091EF0281E034
:101FE0008E0F8093EF028091BB00F0E0E253FD4F33
:101FF00080839091EF028091EE029817C8F285E8F5
:10200000D8CFE091EF0281E08E0F8093EF028091B4
:10201000BB00F0E0E253FD4F80838091F10281111B
:102020005CCF81E08093CC0284EA8093BC00109264
:10203000F20226CF85EC8093BC001092F2028091D0
:102040007F02803230F4E0917F02F0E0E15AFD4FF0
:10205000108260917F0270E0E0918602F091870229
:102060008FE592E0099510927F020ACF1092F0025C
:1020700034CFFC01908190539A3008F090E0818138
:1020800080532AE0929F800D1124089510921F031F
:1020900010921E0388EE93E0A0E0B0E0809320034E
:1020A00090932103A0932203B09323032CE031E00B
:1020B00030931D0320931C0325EC30E0309329035B
:1020C0002093280324EC30E030932B0320932A0341
:1020D00020EC30E030932D0320932C0321EC30E0F2
:1020E00030932F0320932E0322EC30E03093310302
:1020F0002093300326EC30E03093330320933203F7
:102100001092350310923603109237031092380361
:102110001092BC031092BB038093BD039093BE0347
:10212000A093BF03B093C0038EE191E09093BA03F4
:102130008093B903109209041092080480E391E09F
:1021400090930704809306048CE080930A048FEF39
:1021500080930B048BE080930C0485E080930D0446
:1021600084E080930E0483E080930F0482E08093E8
:102170001004109211041092120410921304109281
:1021800014041092150481E00E9438091092010491
:10219000109200041092030410920204109205049D
:1021A0001092040461E070E090E080E00E940C1C5A
:1021B000009709F1909301048093000410920304A6
:1021C000109202042091040430910504232B11F491
:1021D000FC011082109205041092040468E571E07D
:1021E00080910004909101040E94D21C18C08FEFCE
:1021F0008093EA0308958091000490910104009770
:1022000011F00E94831B109201041092000410929E
:10221000050410920404109203041092020486E054
:102220008093F2038BE08093F303E5E0F1E0E49127
:10223000E093F403E1EFF0E0E491E093F50380E84C
:102240009EE3A0E0B0E08093FA039093FB03A09399
:10225000FC03B093FD038091E9038C3040F691E0DC
:10226000980F9093E9038093EA0390E0FC01EE0F4E
:10227000FF1FE80FF91FEB53FC4F88EB9BE09283A5
:1022800081830895CF93DF93CDB7DEB72C970FB638
:10229000F894DEBF0FBECDBF789484B5826084BD54
:1022A00084B5816084BD85B5826085BD85B581605A
:1022B00085BD80916E00816080936E0010928100D8
:1022C0008091810082608093810080918100816093
:1022D0008093810080918000816080938000809154
:1022E000B10084608093B1008091B00081608093E0
:1022F000B00080917A00846080937A0080917A00A7
:10230000826080937A0080917A00816080937A0065
:1023100080917A00806880937A001092C100809149
:10232000EA038C3008F051C061E08AE00E949E030D
:102330008091EA03282F30E0F901EE0FFF1FE20F32
:10234000F31FEB53FC4F9081907C9A609083109226
:10235000EB031092EC032CE0622F0E94D51A829FAF
:10236000B001112430E020E0AB01420F531FFA010D
:10237000EE0FFF1FE40FF51FEB53FC4F908196FD0E
:1023800016C02F5F3F4F2C30310571F781110FC000
:102390001092800082E0809381001092850010925C
:1023A0008400B19A80916F00826080936F00E09109
:1023B000EA038E2F90E0FC01EE0FFF1FE80FF91FDC
:1023C000EB53FC4F808180648083E0912C03F0917B
:1023D0002D0382E08083E0912803F091290310828D
:1023E000E0912A03F0912B038FEC80831092340349
:1023F000E0913003F091310386E08083E0912E0379
:10240000F0912F03808180618083E0912E03F09111
:102410002F03808188608083E0912E03F0912F0349
:10242000808180688083E0912E03F0912F0380816A
:102430008F7D808382E00E94380960E089E00E94FD
:102440009E0360E088E00E949E0362E087E00E94B5
:102450009E0389E00E94470390939902809398021B
:1024600061E08EE00E949E0361E08FE00E949E0387
:1024700061E080E10E949E0362E08091F2030E948D
:102480009E032FB7F8948091A6029091A702A09185
:10249000A802B091A9022FBF805D9740A109B109A0
:1024A0008093F6039093F703A093F803B093F90396
:1024B00087E38093FF038091A4029091A502009787
:1024C00011F00E94831B86E090E00E94E71A8C01C5
:1024D00088E6F801808389EB93E0928381831382FD
:1024E00080E290E0958384831093A5020093A40278
:1024F0001092AB021092AA021092F90210921B03E2
:102500000E94670584EF91E090938902809388028E
:1025100085EF91E09093870280938602EE24E39406
:10252000F801E382C8010E94B40681110DC064E481
:1025300071E08CE193E00E94F30966E571E08CE1C3
:1025400093E00E94F309FFCF1C868091A402909132
:10255000A502FC0124813581232B89F02081E092A2
:10256000F80220931A031092F90210921B0321E043
:1025700041E050E0BE01645F7F4F0E94960641E05B
:1025800050E08E010F5F1F4FB8018091A40290911F
:10259000A5020E947707898190E0880F892F881F04
:1025A000990B892B09F4B3C069E571E08CE193E0E4
:1025B0000E94F30966E571E08CE193E00E94F30963
:1025C0004BE050E069E970E0C8010E949B17CE0122
:1025D0000A960E943910E82EE981E154E33130F582
:1025E0000E2E000CFF0BE950FD4E0C94E11AF8136F
:1025F0001613161313141613161416131613161394
:102600000A1316131613011410140D1416131613AF
:1026100016130A148A81FF24F394813639F08B81D2
:1026200036E0F32E8E3611F027E0F22ECE0105961D
:102630000E943910D82E48E050E060E970E0C801EF
:102640000E949B17C8010E943910C82ECE01049623
:102650000E943910B82ECE0107960E943910382FEB
:1026600086E0F80111928A95E9F72AE0832F622F1C
:102670000E94D51A982F880F890F880F830F8A839D
:102680008B2D0E94D51A982F880F890F880F8B0DDC
:102690008B838C2D0E94D51A982F880F890F880F55
:1026A0008C0D8C838D2D0E94D51A982F880F890F41
:1026B000880F8D0D8E838F2D0E94D51A982F990F1C
:1026C000890F880FF80EFF828E2D0E94D51A982F41
:1026D000880F890F880F8E0D88878091A4029091B2
:1026E000A502FC01248135812830310580F020814C
:1026F00031E03093F80220931A031092F9021092FD
:102700001B0321E048E050E0B8010E949606222415
:102710002394312C1982E090A402F090A502F701D5
:1027200084819581892B09F484C08081F1E0F09344
:10273000F80280931A031092F90210921B0320E012
:1027400041E050E0B801C7010E949606882331F0AD
:1027500047E050E0B801C7010E94770729812F7731
:10276000822F90E034E0959587953A95E1F7982F80
:10277000990F990F891B880F820F8C3009F059C06F
:102780008091000190910101019709F052C0809160
:10279000A2029091A30201969093A3028093A202B9
:1027A00010920101109200018091A0029091A1026B
:1027B000892B09F462C0E4EBF0E0F093A102E0930E
:1027C000A002E090A002F090A102F7FC6FC0C70148
:1027D0000E9478016FE070E080E090E00E94FF03CB
:1027E000F1E0EF1AF108F092A102E092A002E9CF25
:1027F0008B8194E0F92E823709F418CF88E0F82E07
:1028000015CF8B81B3E0FB2E823709F40FCFA5E003
:10281000FA2E0CCFF9E0FF2E09CFEAE0FE2E06CF0C
:102820007BE0F72E03CF6CE0F62E00CF52E0F52EC2
:10283000FDCE30920101209200018091A202909180
:10284000A30261E005970CF460E080E10E94700350
:102850000E943104882351F08091F3038B3030F0D3
:102860008D3058F18551823008F41DC1C12CD12C16
:1028700020ECE22E2FE7F22E3EC0E090A002F09076
:10288000A10285EBE816F1048CF4C7010E947801DF
:102890006FE070E080E090E00E94FF039FEFE91A94
:1028A000F90AF092A102E092A002E7CF68EE73E08D
:1028B00080E090E00E94FF03C0CF6091EE0370E0E3
:1028C00090E080E00E94AB172DEC3CEC4CEC5DE31B
:1028D0000E940A186B017C016091ED0370E090E0AA
:1028E00080E00E94AB179B01AC01C701B6010E94BA
:1028F00063196B017C01C0928A02D0928B02E09234
:102900008C02F0928D020E943104812C912C90EC6B
:10291000A92E9FE7B92E882329F080E00E94B600F7
:102920004B015C0180928E0290928F02A0929002E5
:10293000B09291020E943104882309F4C6C081E05C
:102940000E94B6002B013C01A7019601C701B60108
:102950000E94BB1A811110C0A5019401C501B401E8
:102960000E94BB1A811108C0A3019201C301B201E8
:102970000E94BB1A882351F085EA90E00E94E3028E
:1029800066E571E08CE193E00E94F30987E00E9424
:102990004703892B79F480919E0290919F020196C2
:1029A00090939F0280939E0268E572E080E090E041
:1029B0000E94FF03C0908E02D0908F02E0909002A0
:1029C000F09091026091920270919302072E000C98
:1029D000880B990B0E94AB17A70196010E94A417C0
:1029E00087FF04C060E08EE00E9470036091940253
:1029F00070919502072E000C880B990B0E94AB1763
:102A00009B01AC01C701B6010E94A41787FF04C057
:102A100061E08EE00E947003C0908A02D0908B0229
:102A2000E0908C02F0908D02609196027091970276
:102A3000072E000C880B990B0E94AB17A70196017B
:102A40000E94A41787FF04C060E08FE00E9470031B
:102A500060919C0270919D02072E000C880B990BCF
:102A60000E94AB179B01AC01C701B6010E94A417DD
:102A700087FF04C061E08FE00E94700380919E0296
:102A800090919F028330910509F4A0C12CF581300B
:102A9000910509F4D6C0029709F44CC130929F0207
:102AA00020929E023AC16091ED037091EE03762769
:102AB0006727762790E080E00E94A9172DEC3CEC78
:102AC0004CEC5DE30E940A1814CF412C512C80EC91
:102AD000682E8FE7782E38CF8530910509F4E8C14C
:102AE0000CF4ACC10697D1F661E080E00E94DE09EB
:102AF00087EA91E00E947B0A60E080E00E94DE09A4
:102B000087EA91E00E947B0A60E080E00E94DE0993
:102B100088EB91E00E947B0A60E080E00E94DE0981
:102B20008FEB91E00E947B0A64E670E080E090E029
:102B30000E94FF0360E080E00E94DE0987EC91E0E4
:102B40000E947B0A64E670E080E090E00E94FF0350
:102B500060E080E00E94DE0980ED91E00E947B0A47
:102B600064E670E080E090E00E94FF0360E080E0B7
:102B70000E94DE098AED91E00E947B0A64E670E023
:102B800080E090E00E94FF0360E080E00E94DE09A8
:102B900085EE91E00E947B0A64E670E080E090E0C0
:102BA0000E94FF0360E080E00E94DE0981EF91E077
:102BB0000E947B0A64E670E080E090E00E94FF03E0
:102BC00060E080E00E94DE098EEF91E00E947B0AC7
:102BD00064E670E080E090E00E94FF0360E080E047
:102BE0000E94DE098CE092E00E947B0A64E670E0BD
:102BF00080E090E00E94FF0360E080E00E94DE0938
:102C00008BE192E00E947B0A64E670E080E090E055
:102C10000E94FF0360E080E00E94DE098BE292E008
:102C20000E947B0A64E670E080E090E00E94FF036F
:102C300060E080E00E94DE0987EA91E00E947B0A62
:102C40002DCF60E080E00E94DE0989E891E00E94DB
:102C50007B0A60E086E00E94DE0940918E0250917E
:102C60008F02609190027091910222E086E094E0E0
:102C70000E94800A61E080E00E94DE098DE691E01A
:102C80000E947B0A61E086E00E94DE0940918A0290
:102C900050918B0260918C0270918D0222E086E04F
:102CA00094E00E94800A60E08DE00E94DE0985E7E2
:102CB00091E00E947B0A61E08EE00E94DE09809133
:102CC000A2029091A3020E944E0A86ED90E00E941B
:102CD000E30240918A0250918B0260918C027091C4
:102CE0008D0222E08CE193E00E94800A66E571E0AB
:102CF0008CE193E00E94F30985EC90E00E94E302EE
:102D000040918E0250918F026091900270919102D9
:102D100022E08CE193E00E94800A80E090E0892B21
:102D200009F4F8CC0E946002882309F4F3CC0E94D5
:102D30000000F0CC60E08DE00E94DE0983EB91E0C2
:102D40000E947B0A61E08DE00E94DE0983EB91E046
:102D50000E947B0A60E080E00E94DE0989E791E042
:102D60000E947B0A60E08BE00E94DE098091920263
:102D7000909193020E944E0A89E00E9447037C01D1
:102D800090939B0280939A0280919802909199026D
:102D9000E816F90699F081E0E816F10479F488E084
:102DA0000E9447032091920230919302019759F0BB
:102DB000215031093093930220939202F0929902AC
:102DC000E0929802AACF2F5F3F4FF4CF61E080E0FE
:102DD0000E94DE0985E891E00E947B0A61E08BE0B9
:102DE0000E94DE0980919402909195020E944E0A01
:102DF00089E00E9447037C0190939B0280939A0292
:102E00008091980290919902E816F906B9F291E042
:102E1000E916F10499F688E00E9447032091940294
:102E200030919502019739F0215031093093950284
:102E300020939402C3CF2F5F3F4FF8CF60E080E034
:102E40000E94DE0981E991E00E947B0A60E08BE04C
:102E50000E94DE0980919602909197020E944E0A8C
:102E600089E00E9447037C0190939B0280939A0221
:102E70008091980290919902E816F90609F49ECF84
:102E8000E1E0EE16F10409F099CF88E00E944703D3
:102E90002091960230919702019739F02150310923
:102EA000309397022093960289CF2F5F3F4FF8CF40
:102EB00061E080E00E94DE098CE991E00E947B0ADB
:102EC00061E08BE00E94DE0980919C0290919D025E
:102ED0000E944E0A89E00E9447037C0190939B0266
:102EE00080939A028091980290919902E816F906CF
:102EF00009F464CFF1E0EF16F10409F05FCF88E048
:102F00000E94470320919C0230919D02019739F065
:102F10002150310930939D0220939C024FCF2F5FA7
:102F20003F4FF8CF8091000490910104009711F079
:102F30000C94831B0895FB01DC0102C005900D92E7
:102F400041505040D8F708950E94E61708F481E0F8
:102F50000895E89409C097FB3EF49095809570958C
:102F600061957F4F8F4F9F4F9923A9F0F92F96E9D5
:102F7000BB279395F695879577956795B795F1114A
:102F8000F8CFFAF4BB0F11F460FF1BC06F5F7F4FE7
:102F90008F4F9F4F16C0882311F096E911C07723F9
:102FA00021F09EE8872F762F05C0662371F096E802
:102FB000862F70E060E02AF09A95660F771F881FD1
:102FC000DAF7880F9695879597F90895990F000875
:102FD000550FAA0BE0E8FEEF16161706E807F907EB
:102FE000C0F012161306E407F50798F0621B730B86
:102FF000840B950B39F40A2661F0232B242B252B07
:1030000021F408950A2609F4A140A6958FEF811DA9
:10301000811D08950E941D180C948E180E9480181E
:1030200038F00E94871820F0952311F00C9477183F
:103030000C947D1811240C94C2180E949F1870F3F0
:10304000959FC1F3950F50E0551F629FF001729F4D
:10305000BB27F00DB11D639FAA27F00DB11DAA1F5C
:10306000649F6627B00DA11D661F829F2227B00DA9
:10307000A11D621F739FB00DA11D621F839FA00D34
:10308000611D221F749F3327A00D611D231F849F84
:10309000600D211D822F762F6A2F11249F575040DB
:1030A0009AF0F1F088234AF0EE0FFF1FBB1F661F56
:1030B000771F881F91505040A9F79E3F510580F01F
:1030C0000C9477180C94C2185F3FE4F3983ED4F345
:1030D000869577956795B795F795E7959F5FC1F7C3
:1030E000FE2B880F911D9695879597F9089597F96E
:1030F0009F6780E870E060E008959FEF80EC08959E
:1031000000240A94161617061806090608950024C6
:103110000A9412161306140605060895092E039440
:10312000000C11F4882352F0BB0F40F4BF2B11F4B4
:1031300060FF04C06F5F7F4F8F4F9F4F089557FD13
:103140009058440F551F59F05F3F71F04795880F15
:1031500097FB991F61F09F3F79F0879508951216AC
:1031600013061406551FF2CF4695F1DF08C0161658
:1031700017061806991FF1CF869571056105089409
:103180000895E894BB2766277727CB0197F9089520
:10319000052E97FB1EF400940E94DF1857FD07D000
:1031A0000E94311907FC03D04EF40C94DF1850959F
:1031B0004095309521953F4F4F4F5F4F0895909523
:1031C0008095709561957F4F8F4F9F4F08950E9416
:1031D0005319A59F900DB49F900DA49F800D911D34
:1031E00011240895B7FF0C94E7180E94E718821B7A
:1031F000930B08952F923F924F925F926F927F921E
:103200008F929F92AF92BF92CF92DF92EF92FF92F6
:103210000F931F93CF93DF93CDB7DEB7CA1BDB0BA2
:103220000FB6F894DEBF0FBECDBF09942A88398847
:1032300048885F846E847D848C849B84AA84B9844E
:10324000C884DF80EE80FD800C811B81AA81B9815A
:10325000CE0FD11D0FB6F894DEBF0FBECDBFED016E
:103260000895A1E21A2EAA1BBB1BFD010DC0AA1FC7
:10327000BB1FEE1FFF1FA217B307E407F50720F0DF
:10328000A21BB30BE40BF50B661F771F881F991F5A
:103290001A9469F760957095809590959B01AC01A3
:1032A000BD01CF010895A29FB001B39FC001A39FAC
:1032B000700D811D1124911DB29F700D811D11246F
:1032C000911D08955058BB27AA270E947A190C9483
:1032D0008E180E94801838F00E94871820F039F468
:1032E0009F3F19F426F40C947D180EF4E095E7FB4B
:1032F0000C947718E92F0E949F1858F3BA176207A9
:1033000073078407950720F079F4A6F50C94C1188B
:103310000EF4E0950B2EBA2FA02D0B01B9019001F0
:103320000C01CA01A0011124FF27591B99F0593F34
:1033300050F4503E68F11A16F040A22F232F342F7C
:103340004427585FF3CF469537952795A795F040CA
:103350005395C9F77EF41F16BA0B620B730B840BDF
:10336000BAF09150A1F0FF0FBB1F661F771F881F97
:10337000C2F70EC0BA0F621F731F841F48F48795EF
:1033800077956795B795F7959E3F08F0B0CF9395E1
:10339000880F08F09927EE0F9795879508950E945A
:1033A000E3190C948E180E94871858F00E94801818
:1033B00040F029F45F3F29F00C94771851110C94D8
:1033C000C2180C947D180E949F1868F39923B1F3DA
:1033D000552391F3951B550BBB27AA27621773073B
:1033E000840738F09F5F5F4F220F331F441FAA1FCF
:1033F000A9F335D00E2E3AF0E0E832D0915050408B
:10340000E695001CCAF72BD0FE2F29D0660F771F38
:10341000881FBB1F261737074807AB07B0E809F01E
:10342000BB0B802DBF01FF2793585F4F3AF09E3FA3
:10343000510578F00C9477180C94C2185F3FE4F3B0
:10344000983ED4F3869577956795B795F7959F5FE6
:10345000C9F7880F911D9695879597F90895E1E032
:10346000660F771F881FBB1F621773078407BA0791
:1034700020F0621B730B840BBA0BEE1F88F7E095EC
:1034800008950E94A71888F09F5798F0B92F9927A0
:10349000B751B0F0E1F0660F771F881F991F1AF03F
:1034A000BA95C9F714C0B13091F00E94C118B1E0CB
:1034B00008950C94C118672F782F8827B85F39F0CA
:1034C000B93FCCF3869577956795B395D9F73EF4D8
:1034D00090958095709561957F4F8F4F9F4F089580
:1034E0000E94E61708F48FEF089519F416F40C946F
:1034F0007D180C94C01A0E94A718B8F39923C9F339
:10350000B6F39F57550B87FF0E94CE1A0024A0E602
:1035100040EA900180585695979528F4805C660F94
:10352000771F881F20F026173707480730F4621BE3
:10353000730B840B202931294A2BA69517940794E5
:10354000202531254A2758F7660F771F881F20F05E
:1035500026173707480730F4620B730B840B200DD6
:10356000311D411DA09581F7B901842F9158880F15
:103570009695879508950E94E617880B990B0895F4
:103580009F3F31F0915020F4879577956795B795D7
:10359000880F911D9695879597F908959150504001
:1035A000660F771F881FD2F70895991B79E004C032
:1035B000991F961708F0961B881F7A95C9F7809572
:1035C0000895EE0FFF1F0590F491E02D09940F93DD
:1035D0001F93CF93DF938230910510F482E090E047
:1035E000E0912004F091210430E020E0B0E0A0E080
:1035F000309799F42115310509F44AC0281B390B7D
:1036000024303105D8F58A819B816115710589F1D6
:10361000FB0193838283FE0111C0408151810281AD
:10362000138148175907E0F04817590799F4109784
:1036300061F012960C93129713961C933296CF0159
:10364000DF91CF911F910F91089500932004109363
:103650002104F4CF2115310551F04217530738F0FA
:10366000A901DB019A01BD01DF01F801C1CFEF0122
:10367000F9CF9093210480932004CDCFFE01E20F77
:10368000F31F819391932250310939832883D7CF37
:1036900020911E0430911F04232B41F4209104013A
:1036A0003091050130931F0420931E0420910201E4
:1036B000309103012115310541F42DB73EB74091FA
:1036C000060150910701241B350BE0911E04F09177
:1036D0001F04E217F307A0F42E1B3F0B281739072E
:1036E00078F0AC014E5F5F4F2417350748F04E0F5E
:1036F0005F1F50931F0440931E04819391939FCFAB
:10370000F0E0E0E09CCFCF93DF930097E9F0FC017D
:10371000329713821282A0912004B0912104ED010E
:1037200030E020E01097A1F420813181820F931FB7
:1037300020911E0430911F042817390709F061C039
:10374000F0931F04E0931E04DF91CF910895EA01E6
:10375000CE17DF07E8F54A815B819E0141155105CF
:10376000B1F7E901FB83EA8349915991C40FD51F51
:10377000EC17FD0761F4808191810296840F951FFB
:10378000E90199838883828193819B838A83F0E016
:10379000E0E012968D919C9113970097B9F52D91C9
:1037A0003C911197CD010296820F931F20911E0428
:1037B00030911F042817390739F6309751F51092C8
:1037C000210410922004B0931F04A0931E04BCCFC8
:1037D000D383C28340815181840F951FC817D907B5
:1037E00061F44E5F5F4F88819981480F591F518363
:1037F00040838A819B81938382832115310509F05F
:10380000B0CFF0932104E09320049ECFFD01DC01B2
:10381000C0CF13821282D7CFB0E0A0E0E2E1FCE19A
:103820000C94FC188C01009751F4CB010E94E71A0C
:103830008C01C801CDB7DEB7E0E10C941819FC018A
:10384000E60FF71F9C0122503109E217F30708F435
:103850009DC0D901CD91DC911197C617D70798F07B
:10386000C530D10530F3CE0104978617970708F3CA
:10387000C61BD70B2297C193D1936D937C93CF0135
:103880000E94831BD6CF5B01AC1ABD0A4C018C0E83
:103890009D1EA0912004B0912104512C412CF12CAB
:1038A000E12C109731F580911E0490911F0488152A
:1038B000990509F05CC04616570608F058C080917B
:1038C000020190910301009741F48DB79EB740919A
:1038D000060150910701841B950BE817F90708F0C2
:1038E00055C0F0931F04E0931E04F90171836083B7
:1038F000A0CF8D919C91119712966C901297139670
:103900007C901397A815B90559F56C0142E0C40ED7
:10391000D11CCA14DB0420F1AC014A195B09DA019D
:103920001296159780F06282738251834083D90189
:103930006D937C93E114F10471F0D7011396FC931D
:10394000EE93129776CF22968C0F9D1FF9019183EB
:103950008083F301EFCFF0932104E093200469CF3B
:103960004816590608F42C017D01D3019ACFCB01EA
:103970000E94E71A7C01009749F0AE01B8010E944D
:10398000C91CC8010E94831B870153CF10E000E0CF
:1039900050CFFB01DC0102C001900D92415050401C
:1039A000D8F70895FB01DC0101900D920020E1F7AA
:1039B000089510E0CBE8D0E004C0FE010E94E11AB7
:0C39C0002196CC38D107C9F7F894FFCF4E
:1039CC000100000022048000000000009602F601B5
:1039DC002302FE0254023202460200000000440799
:1039EC0017077407ED061007FD06EE060000000031
:1039FC00ED09F601740773076E616E00696E66005F
:103A0C006F766600436F756C646E27742066696E02
:103A1C006420525443000D0A005254432069732011
:103A2C004E4F542072756E6E696E67210068756D0D
:103A3C0020203D2000446179004D61782054656D53
:103A4C0070203D20004D696E2054656D70203D2026
:103A5C00004D61782048756D203D20004D696E2029
:103A6C0068756D203D200020202020202020202063
:103A7C002020202020202000534156494E4700533F
:103A8C004156494E472E00534156494E472E2E0063
:103A9C00534156494E472E2E2E00534156494E4700
:103AAC002E2E2E2E00534156494E472E2E2E2E2EA4
:103ABC0000534156494E472E2E2E2E2E2E0053418A
:103ACC0056494E472E2E2E2E2E2E2E005341564941
:103ADC004E472E2E2E2E2E2E2E2E00534156494E54
:103AEC00472E2E2E2E2E2E2E2E2E00534156494E64
:0C3AFC00472E2E2E2E2E2E2E2E2E2E00AB
:00000001FF
